:020000040800F2
:10000000480B002089010008E7170008A913000821
:10001000E5170008E3020008731D00080000000057
:10002000000000000000000000000000D91A0008D5
:10003000E502000800000000E9170008DB1A0008CC
:10004000A3010008A3010008A3010008A301000800
:10005000A3010008A3010008A3010008A3010008F0
:10006000A3010008A3010008A3010008A3010008E0
:10007000A3010008A3010008A3010008A3010008D0
:10008000A3010008A3010008A3010008A3010008C0
:10009000A3010008A3010008A3010008A3010008B0
:1000A000A3010008A3010008A3010008A3010008A0
:1000B000A3010008A3010008A3010008A301000890
:1000C000A3010008A3010008A3010008A301000880
:1000D000A3010008A3010008A3010008A301000870
:1000E000A3010008A3010008A301000800F002F822
:1000F00000F03AF80AA090E8000C82448344AAF188
:100100000107DA4501D100F02FF8AFF2090EBAE885
:100110000F0013F0010F18BFFB1A43F0010318473B
:10012000282D0000482D0000103A24BF78C878C15F
:10013000FAD8520724BF30C830C144BF04680C60ED
:10014000704700000023002400250026103A28BF35
:1001500078C1FBD8520728BF30C148BF0B60704739
:100160001FB51FBD10B510BD00F082F81146FFF796
:10017000F7FF01F071FF00F0A0F803B4FFF7F2FF02
:1001800003BC00F0A7F80000094880470948004771
:10019000FEE7FEE7FEE7FEE7FEE7FEE7FEE7FEE737
:1001A000FEE7FEE704480549054A064B7047000094
:1001B000391B0008ED00000848050020480B00200E
:1001C000480700204807002002F0FF0343EA03220B
:1001D00042EA024200F02CB84FF0000200B513468C
:1001E00094469646203922BFA0E80C50A0E80C5057
:1001F000B1F12001BFF4F7AF090728BFA0E80C5008
:1002000048BF0CC05DF804EB890028BF40F8042B00
:1002100008BF704748BF20F8022B11F0804F18BF6D
:1002200000F8012B70477047704770474FF000028D
:100230000429C0F0128010F0030C3FF4CFAFCCF1D2
:10024000040CBCF1020F18BF00F8012BA8BF20F866
:10025000022BA1EB0C01FFF7C1BF5FEAC17C24BFF9
:1002600000F8012B00F8012B48BF00F8012B704764
:10027000754600F02BF8AE4605006946534620F05F
:100280000700854618B020B5FFF78CFFBDE8204079
:100290004FF000064FF000074FF000084FF0000B42
:1002A00021F00701AC46ACE8C009ACE8C009ACE8F5
:1002B000C009ACE8C0098D46704710B50446AFF3DD
:1002C00000802046BDE81040FFF757BF0048704748
:1002D000E404002001491820ABBEFEE7260002001E
:1002E0007047FEE77047000070B5044600F008F95B
:1002F0000546601C02D004480078044400F000F970
:10030000401BA042FAD370BD380000202DE9F84F01
:10031000DFF8B8910024A9F1040B23460F2709F157
:10032000040AABF1040EC9E00125A5402A40AA4207
:100330007DD1674ED1F804C0ACEB0608B44532D08D
:1003400014DCBCF1030F3AD009DCBCF1000F2AD059
:10035000BCF1010F1CD0BCF1020F31D11DE0BCF18A
:10036000110F17D0BCF1120F2AD119E0B8F5881F70
:1003700019D006DCB8F5803F15D0B8F5801F1FD125
:1003800011E0B8F5001F0ED0B8F5041F18D10AE02F
:10039000CB6815E0CB681B1D12E0CB6808330FE07B
:1003A000CB680C330CE08B682BB1012B4FF00803AA
:1003B00003D0456104E0042302E0056100E000236E
:1003C000FF2A01D8064601E000F104064FEA840541
:1003D00001D9A5F12005D6F8008007FA05FC28EA26
:1003E0000C0803FA05F548EA0508C6F800804D68D0
:1003F000ED0062D5374DAE6946F00106AE61AD69DC
:1004000024F0030605F001050095334D06EB050CBD
:10041000DCF80850A607360F07FA06F825EA0805A3
:10042000DFF8B880404503D14FF0000817E044E002
:10043000DFF8AC80404502D14FF001080FE0DFF853
:10044000A480404502D14FF0020808E0DFF8988010
:10045000404502D14FF0030801E04FF0040808FACC
:1004600006F848EA0508CCF808804D68D9F800601D
:10047000ED024D4601D5164300E096432E604D68CF
:10048000DAF80060AD02554601D5164300E0964308
:100490002E604D68DBF80060AD035D4601D5164364
:1004A00000E096432E604D68DEF80060ED0375466F
:1004B00001D5164300E096432E60641C0D682A4661
:1004C000E5407FF431AFBDE8F88F0000080401403B
:1004D000000011100010024000000140000801401F
:1004E000000C0140001001400014014080680840E9
:1004F00000D0012070470AB1016170470904FBE791
:1005000001488068704700003800002070B5040082
:1005100025D094F83D00002520B984F83C502046B1
:1005200000F004FA242084F83D002068016821F0DE
:10053000010101602068016841F400410160206808
:10054000016821F40041016000F03EFB4D4A616802
:10055000914201D84C4900E04C49884201D2012027
:1005600070BD4B492368B0FBF1F15E6826F03F0691
:100570000E435E606368934206D94FF49673594305
:100580004FF47A73B1FBF3F12368491C1E6A26F01D
:100590003F06314319626168914210D84900401EFC
:1005A000B0FBF1F2521CC2F30B02042A01D2042068
:1005B00022E0B0FBF1F0401CC0F30B001CE0A2688D
:1005C000F2B301EBC10303EB0116431EB3FBF6F3D9
:1005D0005B1C43F480431B0549D092B301EBC1027D
:1005E00002EB0111401EB0FBF1F0401CC0F30B0008
:1005F00040F4804040F400402168CA694CF6FF7323
:100600009A431043C861D4E9071001432068026887
:1006100022F0C00211430160D4E9030101432068C4
:10062000826848F2FF339A4311438160D4E905019F
:1006300008432168CA6822F0FF021043C86001E045
:100640000EE016E02068016841F0010101602564B8
:10065000202084F83D00256384F83E50002070BDC2
:1006600001EB4106431EB3FBF6F35B1CB3E701202D
:10067000C2E701EB4101401EB0FBF1F0401CC0F3AA
:100680000B00B7E7A086010080841E0000093D0032
:1006900040420F002DE9FF4F81B089460446FFF725
:1006A0002FFF054694F83D004FF0000820287DD12B
:1006B0001923012250492046009500F007FF002829
:1006C00074D194F83C00012870D0012084F83C00DB
:1006D00020680168C90703D1016841F00101016088
:1006E0002068016821F400610160242084F83D0045
:1006F000002626644148E0624FF0011B2027206855
:10070000016841F48071016000950022594620463D
:10071000049B00F0DBFE50B120680068C00502D5E4
:100720004FF400702064032005B0BDE8F08F21680D
:1007300009F0FE000861FFF7E3FE216805464869FD
:100740004969C0F34000C1F380214FF0A00A0FE0D7
:10075000FFF7D6FE411B0498814200D808B984F8FF
:100760003DA0216848694969C0F34000C1F3802178
:1007700094F83D20A02A02D008B90029E8D084F8D6
:100780003D7020684169C943890716D4016841F466
:1007900000710160206841698069192301221649AE
:1007A0002046009500F092FEB8B900E021E084F800
:1007B0003D7084F83C600020B6E7016841F40071A8
:1007C000016021686FF480604861192301220A49A1
:1007D0002046009500F07AFE08B10120A4E70398B6
:1007E00008F1010880458AD384F83D7084F83C60A4
:1007F000F3E7022098E70000020010000000FFFF6E
:100800002DE9F84F1F4690468A460446DDF82890A9
:10081000FFF776FE054694F83D0020287FD1192386
:10082000012240492046009500F050FE002876D174
:1008300094F83C00012872D0012084F83C00206824
:100840000168C90703D1016841F001010160206816
:10085000016821F400610160212084F83D0010202E
:1008600084F83E0000262664C4F824806785608DE5
:1008700020852D48E0622B464A465146204600F02E
:10088000ABFD90B9206841698069009036E02A4646
:100890004946204600F0C0FE50B1206C042804D127
:1008A0002068016841F4007101600120BDE8F88F03
:1008B000606A216800780861606A401C6062618D2E
:1008C000491E6185218D491E89B22185226853699F
:1008D000DB435B070BD451B100781061606A401CA8
:1008E0006062608D401E6085208D401E20852A46F6
:1008F0004946204600F0BEFD0028CED1208D0028BC
:10090000C5D154F83D0B016841F40071016020200D
:1009100004F81E09E67766770020C7E7FFE70220A4
:10092000C4E70000020010000000FFFF10B586B011
:100930000021009101910291039100680F498842C2
:100940001AD10F4CA06940F00800A061A069694667
:1009500000F008000490C0200090122001900320B5
:1009600003900848FFF7D2FCE06940F40010E06112
:10097000E06900F40010049006B010BD005400407F
:1009800000100240000C01400248816802781144C6
:100990008160704738000020074810B5016841F0B9
:1009A00010010160032000F067F8012000F006F854
:1009B00000F024F8002010BD0020024070B50D4D5D
:1009C00004464FF47A712878B1FBF0F00A490968BF
:1009D000B1FBF0F000F0BEFA48B9102C07D20022AB
:1009E0002146501E00F028F800206C6070BD0120E8
:1009F00070BD000038000020440000200C4808B5FD
:100A0000816941F001018161816901F00101009179
:100A1000C16941F08051C161C06900F0805000900F
:100A20000448416821F0E06141F00071416008BD77
:100A30000010024000000140F0B40E4B1B680C4651
:100A4000C3F30223C3F10705042D00D90425191DA2
:100A5000072901D2002300E0DB1E012606FA05F17A
:100A6000491E214099409E40761E16403143F0BCFD
:100A700001F080B90CED00E0064900F007020868BB
:100A80004FF6FF03184040EA0220034A1043086073
:100A9000704700000CED00E00000FA052DE9F0477A
:100AA0000F46050061D0434E306800F00700B842A1
:100AB00009D2306820F0070038433060306800F019
:100AC0000700B84251D128683B4C810712D5400736
:100AD00003D5606840F4E06060602878000703D5C3
:100AE000606840F4605060606068A96820F0F000C1
:100AF000084360602878C00728D06868012810D0B3
:100B00002168022810D0890700292EDA616821F0B7
:100B1000030101436160FFF7F3FC804641F288392D
:100B20000DE021688903EFE78901EDE7FFF7E8FCB5
:100B3000A0EB0801494502D90320BDE8F0876068B1
:100B4000696800F00C00B0EB810FEFD1306800F065
:100B50000700B8420BD9306820F0070038433060F6
:100B6000306800F00700B84201D00120E5E728789E
:100B7000400705D56068E96820F4E06008436060DC
:100B80002878000706D56068296920F4605040EA9B
:100B9000C100606000F028F86168084AC1F30311E1
:100BA000515CC8400649086006480068FFF706FF28
:100BB0000020C2E700200240001002402E2E000854
:100BC000440000203C0000200448054900684968B2
:100BD000044AC1F30221515CC84070474400002020
:100BE000001002403E2E00080E4A51680E4801F0E7
:100BF0000C03042B11D0082B0FD10C48C1F38343F5
:100C0000C903C05C0AD55168084AC1F34041921E2D
:100C1000515C054A5043B0FBF1F07047044948432A
:100C2000704700000010024000127A001E2E0008DB
:100C300000093D002DE9F84F040070D02078C04D28
:100C4000C00749D06868C0F38100012807D06868F0
:100C5000C0F38100022809D16868C00306D528685E
:100C6000800339D560680028E7D035E06068B0F5CA
:100C7000803F0BD010B1B0F5A02F11D0286820F420
:100C800080302860286820F4802002E0286840F442
:100C900080302860606890B1FFF732FC06460AE0B9
:100CA000286840F480202860F0E700BFFFF728FCA8
:100CB000801B642873D828688003F7D50CE0FFF701
:100CC0001FFC064605E000BFFFF71AFC801B6428E6
:100CD000F0D828688003F7D420789A4E80074FF028
:100CE00001094FF0000839D5686810F00C0F07D0E3
:100CF0006868C0F38100022809D16868C00306D47F
:100D00002868800714D52069012808D110E02069DF
:100D1000B0B1C6F80090FFF7F3FB074605E00AE123
:100D2000FFF7EEFBC01B0228C4D828688007F7D560
:100D30002868616920F0F80040EAC10028600DE0F1
:100D4000C6F80080FFF7DCFB074604E0FFF7D8FB9E
:100D5000C01B022823D828688007F7D42078000712
:100D60002CD57948A169D9B1C0F80090FFF7C8FB2C
:100D7000074604E0FFF7C4FBC01B02280FD8686ACF
:100D80008007F7D571484FF4FA510068B0FBF1F0D5
:100D9000009000BF0098411E0091FAD20EE080E062
:100DA000C0F80080FFF7ACFB074604E0FFF7A8FBA4
:100DB000C01B022875D8686A8007F7D420784007DE
:100DC00060D5E8690027C00008D4E86940F0805089
:100DD000E861E869012700F0805000905C480168F4
:100DE000C90513D40168834641F480710160FFF79F
:100DF00087FB824606E000BFFFF782FBA0EB0A00FC
:100E000064284ED8DBF80000C005F5D5E06801285D
:100E10000AD008B1052813D0286A20F00100286202
:100E2000286A20F0040002E0286A40F001002862ED
:100E3000E06841F2883B98B1FFF762FB82460BE025
:100E4000286A40F004002862EEE700BFFFF758FB75
:100E5000A0EB0A0159455AD8286A8007F6D50CE05C
:100E6000FFF74EFB824605E0FFF74AFBA0EB0A01C5
:100E700059454CD8286A8007F6D41FB1E86920F09C
:100E80008050E861E06988B36968C1F38101022993
:100E900044D00228C6F8608004D0FFF731FB044636
:100EA00038E034E0FFF72CFB074604E0FFF728FBAF
:100EB000C01B02282BD828688001F7D4206AB0F51F
:100EC000803F05D16868A16820F40030084368605D
:100ED000D4E908010843696821F474110843686083
:100EE000C6F86090FFF70CFB044606E025E000BF63
:100EF000FFF706FB001B022809D828688001F7D5F8
:100F00001BE000BFFFF7FCFA001B022802D90320F8
:100F1000BDE8F88F28688001F4D40EE00128F7D0EE
:100F20006868226A00F48031914204D1616A00F459
:100F30007010884201D00120EAE70020E8E70000B5
:100F4000001002400000424280044242440000205F
:100F50000070004010B5401EB0F1807F01D3012029
:100F600010BD4FF0E02460610F21601700F002FF18
:100F70000020A06107202061002010BD10B590F86E
:100F80003C20012A22D0012280F83C20CA688C68CB
:100F900022F4407222434C6822F4806222430C689F
:100FA00022F4006222430C6922F4805222434C69ED
:100FB00022F400522243C969002322F480420A43EA
:100FC00001684A6480F83C30002010BD022010BD4A
:100FD00070B590F83C20012A26D0012480F83C40CE
:100FE000022280F83D2003685A689D6822F070064E
:100FF0000A6832435A600D4B02689A4208D0B2F137
:10100000804F05D00A4B9A4202D00A4B9A4204D133
:10101000496825F080031943916080F83D40002124
:1010200080F83C10084670BD022070BD002C0140C5
:10103000000400400008004010B5040003D094F8FC
:101040003D0010B107E0012010BD002084F83C00F5
:10105000204600F01FF8022084F83D00211D206882
:1010600000F06CFD012084F8460084F83E0084F80E
:101070003F0084F8400084F8410084F8420084F87E
:10108000430084F8440084F8450084F83D000020C3
:1010900010BD000008B500680649884208D106481E
:1010A000816941F400618161806900F40060009011
:1010B00008BD0000002C01400010024070B504463D
:1010C00090F83C000025012817D0012684F83C60E8
:1010D000022084F83D002068826822F0770222F422
:1010E0007F4282600868502838D00DDC20284FD01D
:1010F00005DC90B3102811D14AE0022070BD3028E1
:1011000046D040280AD13BE060282FD070280DD06F
:10111000B0F5805F03D0B0F5005F12D0012584F8F0
:101120003D60002084F83C00284670BDCB68D1E9C2
:101130000121206800F045FD2068816841F07701B9
:1011400009E0CB68D1E90121206800F03AFD206870
:10115000816841F480418160E1E719E0CA6849682B
:10116000206800F0E3FD5021206806E0CA68496865
:10117000206800F0ECFD6021206800F02CFDCEE737
:10118000CA684968206800F0D1FD40212068F4E772
:10119000226801461046F0E700B585B000210091B5
:1011A00001910291039100680B49884212D10B48CA
:1011B000816941F0040181618069694600F00400A1
:1011C00004904FF480700090022001900390044836
:1011D000FFF79CF805B000BD002C01400010024054
:1011E0000008014070B5044690F83C0000260D460A
:1011F00001280FD0012084F83C006AB1042A1DD0D8
:10120000082A2FD00C2A3FD00126002084F83C0069
:10121000304670BD022070BD206800F0E5FC2068FB
:10122000816941F0080181612068816921F0040130
:101230008161206881692A69114311E0206800F00A
:10124000FBFC2068816941F400618161206881694B
:1012500021F480618161206881692A6941EA022163
:101260008161D2E7206800F013FD2068C16941F078
:101270000801C1612068C16921F00401C1612068D1
:10128000C1692A69114311E0206800F02DFD206832
:10129000C16941F40061C1612068C16921F48061C4
:1012A000C1612068C1692A6941EA0221C161ACE7D4
:1012B00010B5040003D094F83D0010B107E0012000
:1012C00010BD002084F83C00204600F01EF80220EB
:1012D00084F83D00211D206800F030FC012084F8D6
:1012E000460084F83E0084F83F0084F8400084F80B
:1012F000410084F8420084F8430084F8440084F8F4
:10130000450084F83D00002010BD704710B504462C
:10131000022249B104290ED0082913D094F84100C3
:10132000012816D0012010BD94F83E000128F9D103
:1013300084F83E200FE094F83F000128F2D184F8B1
:101340003F2008E094F840000128EBD184F84020C9
:1013500001E084F841200122206800F025FC0F49BB
:101360002068884203D1426C42F400424264206803
:10137000884208D0B0F1804F05D00949884202D098
:101380000849884204D1816801F00701062903D089
:10139000016841F001010160002010BD002C0140F6
:1013A0000004004000080040FEE701684A69D2439B
:1013B00052050FD46FF480624A61002140F8301F5B
:1013C000202242738173026942F0040202610173B8
:1013D0000120704700207047F8B50446C06A1E46D9
:1013E0000D461746082807D0012805D010F5803F84
:1013F00002D0206B122804D12068016841F480716A
:101400000160134600224FF001112046009600F0C3
:101410005DF840B120680068C00502D54FF4007047
:1014200020640320F8BD2069B0F5804F0ED006205F
:10143000216800EAD51040F0F000086133463A46D2
:101440000B49204600F08AF878B902E005F0FE006A
:1014500000E0E8B221680861054933463A46891F31
:10146000204600F07BF80028DCD00120F8BD000009
:101470000800010070B516460D4604461EE02046E1
:10148000FFF793FF08B1012070BD681C16D0FFF76D
:1014900037F8801BA84200D885B920684069C0434E
:1014A00040070BD5002044F8300F20216173A07352
:1014B000216941F0200121612073E4E7206840693F
:1014C000C0434007DBD4002070BD00002DE9F04789
:1014D000984617460D460446C1F30746DDF82090AE
:1014E0002AE000BFB8F1FF3F26D0FFF709F8A0EBD4
:1014F0000901414502D8B8F1000F1DD12068012E25
:1015000016D0806925EA00000004000C12D00020EB
:10151000B84211D1002044F8300F20216173A0732C
:10152000216941F02001216120730120BDE8F0878D
:101530004069E7E70120EBE72068012E0AD08069C7
:1015400025EA00000004000C06D00020B842C9D0F3
:101550000020EBE74069F3E70120F7E72DE9F047CA
:10156000984616460D4604464FF000094FF0200AF3
:10157000C1F3074723E020684069C043400515D404
:101580002068016841F40071016021686FF4806097
:101590004861C4F8309084F83DA084F83E90216CF6
:1015A00041F00401216484F83C9021E0701C06D0D5
:1015B000FEF7A6FFA0EB0800B04203D816B1012F3A
:1015C0001FD021E02068012F15D0806925EA000096
:1015D0000004000C18D000BF44F8309F84F80DA020
:1015E00084F80E90216941F02001216184F80C906B
:1015F0000120BDE8F087406925EA00000004000CE6
:10160000EAD12068406901E02068806925EA00008D
:101610000004000CAFD1ECE770B516460D46044649
:101620001EE02046FFF7C1FE08B1012070BD681C16
:1016300016D0FEF765FF801BA84200D885B9206848
:101640004069C04300060BD5002044F8300F20212C
:101650006173A073216941F0200121612073E4E7E7
:1016600020684069C0430006DBD4002070BD000044
:1016700070B586B000252448009501950295039524
:10168000816941F020018161816901F020010491AB
:10169000816941F004018161816901F004010491D3
:1016A000816941F0080181618069184E00F00800ED
:1016B00004900022F0213046FEF71DFF0F20CDE9F7
:1016C00000050124694602943046FEF71FFEF02013
:1016D0008DE831000220039069463046FEF716FE81
:1016E0000B480C4ECDE90040694630460294FEF7A7
:1016F0000DFEA002CDE90005694602943046FEF7D2
:1017000005FE06B070BD0000001002400008014058
:1017100000001110000C014010B596B000240F9489
:1017200010941194129413941C2108A81494FEF799
:1017300053FD20216846FEF74FFD294827490160E7
:1017400040F23F11C0E9011440F2E731C0E903144F
:101750008021C0E90541FFF76FFC08B172B6FEE7D2
:101760004FF480500F900FA91D48FFF7A7FC08B158
:1017700072B6FEE71A48FFF79BFD08B172B6FEE7A6
:10178000139413A916481494FFF722FC08B172B6FB
:10179000FEE76020CDE908040A940B940C940D94A4
:1017A000002208A90E480E94FFF71CFD08B172B67E
:1017B000FEE700944FF40050CDE9044002940194F8
:1017C0000394694606480794FFF7D8FB08B172B640
:1017D000FEE70348FFF7E0FC16B010BD002C014007
:1017E0009C040020FEE7FEE7704710B5002000F0E3
:1017F00025F8BDE8104000F04BB9000070B5802816
:1018000013D2402911D20B4B012401F007051E7998
:10181000AC40094BC90800EBC1100EB132B101E078
:10182000012A03D0195CA143195470BD195C2143EE
:10183000FAE70000180000204800002028B1FF222D
:101840004FF480610248FEF7BFBC0022F8E70000B9
:1018500048000020014A1080518070471800002085
:1018600010B500F0ADFE44F6206301227821544803
:10187000FEF710FF08B1002010BD40F6C210401E58
:10188000FDD1AE220021782000F0A0FE2022002110
:10189000782000F09BFE10220021782000F096FEB8
:1018A000B0220021782000F091FEC822002178208B
:1018B00000F08CFE00221146782000F087FE1022F6
:1018C0000021782000F082FE40220021782000F0E4
:1018D0007DFE81220021782000F078FEFF22002189
:1018E000782000F073FEA1220021782000F06EFE27
:1018F000A6220021782000F069FEA822002178208D
:1019000000F064FE3F220021782000F05FFEA42258
:101910000021782000F05AFED3220021782000F028
:1019200055FE00221146782000F050FED5220021FD
:10193000782000F04BFEF0220021782000F046FED7
:10194000D9220021782000F041FE222200217820B7
:1019500000F03CFEDA220021782000F037FE12224F
:101960000021782000F032FEDB220021782000F0F8
:101970002DFE20220021782000F028FE8D2200215B
:10198000782000F023FE14220021782000F01EFEB3
:10199000AF220021782000F019FE2E2200217820AD
:1019A00000F014FE0020FFF749FF00F071F8054831
:1019B00000210180418001214171084610BD0000D5
:1019C00048040020180000202DE9F04781462548F2
:1019D0000D46924601882A781144802905D2804616
:1019E000408869780844402802D30020BDE8F08789
:1019F00000262AE0A9F1200101FB00606A680024AA
:101A000032F810701DE000BF07FA04F0000409D599
:101A1000B8F80210B8F800003144204489B280B20E
:101A200052460BE0BAF1000F1AD00022B8F80210AB
:101A3000B8F800003144204489B280B2FFF7DEFEDE
:101A4000641C2878A042DFD8761C6878B042D1D8D0
:101A5000B8F800102A7848461144A8F80010C5E7E5
:101A60000122E3E71800002070B515460E46044633
:101A700009E02A463146FFF7A7FF2178884201D0C6
:101A8000C8B270BD641C20780028F2D1C0B270BD0D
:101A900070B5104D002400BF04F1B000C2B20021A7
:101AA000782000F093FD00221146782000F08EFD92
:101AB00010220021782000F089FD05EBC41280235C
:101AC0004021782000F092FD641CE4B2082CE3D39E
:101AD00070BD0000480000207047FEF755BF30B5CC
:101AE0008FB028216846FEF777FB14210AA8FEF77D
:101AF00073FB02250120049000951020059000241E
:101B0000C003CDE9084007956846FFF793F808B190
:101B100072B6FEE70F20CDE90A054FF48060CDE9EB
:101B20000C4000210AA80E94FEF7B8FF002801D04F
:101B300072B6FEE70FB030BD70470000F0B5026826
:101B4000164B174C174D4FF08047984205D0B842BE
:101B500003D0A04201D0A84203D122F070064A6807
:101B60003243984205D0B84203D0A04201D0A842E7
:101B700003D122F44074CA6822434C6922F08002E7
:101B8000224302608A68C2620A688262984201D176
:101B90000969016301214161F0BD0000002C014091
:101BA000000400400008004010B501F01F030121AF
:101BB000046A99408C430462016A9A4011430162AD
:101BC00010BD10B5846842EA032224F47F440A431E
:101BD0002243826010BD826822F070020A4342F004
:101BE000070181607047000030B5036A026A22F085
:101BF000010202624268846924F073050C682C4378
:101C000023F002058B682B430A4DA8420BD123F029
:101C10000805CB6822F440722B434D6923F004037E
:101C200015438A692A4342608461496841630362BB
:101C300030BD0000002C014030B5026A036A23F079
:101C400010030362436884690D6824F4E64444EA9F
:101C500005248D6822F0200242EA05120B4DA842AD
:101C60000ED1CD6822F0800242EA05124D6923F4BC
:101C7000406343EA85038D6922F0400243EA85030D
:101C80004360846149688163026230BD002C014079
:101C900030B5036A026A22F4807202624268C46943
:101CA00023F4007324F073050C682C438D6843EA19
:101CB00005230C4DA8420ED1CD6823F4006343EAFE
:101CC00005234D6922F4405242EA05128D6923F43E
:101CD000806342EA05124260C4614968C1630362DD
:101CE00030BD0000002C014030B5046A026A22F4C5
:101CF000805202624268C3690D6823F4E64343EAF6
:101D000005238D6824F4005444EA0534064DA842A6
:101D100004D14D6922F4804242EA85124260C361D7
:101D200049680164046230BD002C014010B5036AAB
:101D3000046A24F001040462846924F0F00444EA93
:101D4000021423F00A020A438461026210BD10B536
:101D5000036A046A24F010040462846923F0A00377
:101D600024F4704444EA023243EA011182610162C0
:101D700010BDFEE70907090E002804DB00F1E02092
:101D800080F80014704700F00F0000F1E02080F8A8
:101D9000141D704770B5394C0546A0786B286CD07F
:101DA00041281BD02078082821D020281FD01921B5
:101DB000FFF750FD012204F12001A078FFF704FE97
:101DC000FFF766FE2078083020706178A0786854AC
:101DD0006078401C6070A07841284ED1207800289F
:101DE0004BD00026182826D0302824D032E01921E4
:101DF000FFF730FD214901222031A078FFF7E4FDF3
:101E0000FFF746FE2078083020706178A07868548B
:101E100060781921401C60702078FFF71BFD17497E
:101E20000122203116A0FFF71FFEFFF731FE2078B8
:101E300008302070CFE70838C0B220701921FFF7B2
:101E400009FD0E49012220310EA0FFF70DFEFFF71C
:101E50001FFE207819210838C0B22070FFF7FAFC65
:101E600006490122203107A0FFF7FEFDFFF710FE13
:101E700060782E546078401E607070BD00000020B5
:101E80002F0000002000000070B505461B4C00200C
:101E90000146207060706854491CC9B20829FAD301
:101EA0004FF4967600F002FAA0702846FFF772FF12
:101EB000A0786B281DD119212078FFF7CBFC0F49A2
:101EC000012220310EA0FFF7CFFDFFF7E1FD3046E4
:101ED000FEF70AFA19212078FFF7BCFC0749012216
:101EE000203108A0FFF7C0FDFFF7D2FD3046FEF716
:101EF000FBF960780828D5D170BD000000000020F3
:101F00005F0000002000000070B51B4C0546A07863
:101F10006B2830D0412817D019212078FFF79AFC80
:101F2000012204F1200115A0FFF79EFDFFF7B0FD8F
:101F30002078083020706178A07868546078401C60
:101F40006070A078412816D12078002813D0083876
:101F5000C0B220701921FFF77DFC07490122203112
:101F600007A0FFF781FDFFF793FD6178002068541B
:101F70006078401E607070BD000000207800000096
:101F8000200000002DE9F0410D461E4C00210746BF
:101F900021706170084602E03954401CC0B2A8426A
:101FA000FADB4FF4967600BF00F080F9A070294666
:101FB0003846FFF7A9FFA0786B281DD1192120789A
:101FC000FFF748FC0F49012220310FA0FFF74CFD1D
:101FD000FFF75EFD3046FEF787F919212078FFF7FD
:101FE00039FC08490122203108A0FFF73DFDFFF729
:101FF0004FFD3046FEF778F96078A842D4D1BDE8AD
:10200000F0810000000000205F00000020000000C0
:1020100010B5FFF7EAFB0F210020FFF71BFC0122A0
:10202000064907A0FFF720FDFFF732FD03481030F7
:10203000FFF72AFFBDE81040FFF7D7BB20000020C4
:1020400057686174277320796F75722062697264B2
:1020500074686461793F0000FEF79EFCFFF73FFD66
:10206000FFF706FB5C485B49002501605B49C0E95E
:1020700001154FF48041C0E9035145618561C56197
:102080000562FEF743FA08B172B6FEE7FFF744FBBC
:10209000514800215430FFF739F94F4E40F28E3746
:1020A0005436306847636420FEF71EF9FFF7D8FB0B
:1020B0000F210020FFF7CEFB0122494949A0FFF77D
:1020C000D3FCFFF7E5FC464804211A38FFF75AFF16
:1020D000FFF79EFF424C4FF00108203C65610F2145
:1020E0000020FFF7B7FB01223D4944A0FFF7BCFCED
:1020F000FFF7CEFC3A48E57004211238FFF742FFA3
:10210000374904221A3901F1080000F08BFA60699E
:10211000012803D16079B8B900F09AF8607998B9CC
:1021200031684FF470704863DFF8E0A04FF48069C5
:1021300049465046FEF7DAF90128F9D04FF4967077
:10214000FEF7D2F8306847636079052802D0092885
:102150001BD03BE00F210020FFF77CFB0122204930
:102160002BA0FFF781FCFFF793FC19210020FFF75C
:1021700071FB01221A492AA0FFF776FCC4F81480EB
:10218000FFF786FC42F210701CE00F210020FFF7E1
:1021900061FB0122124926A0FFF766FCFFF778FCDD
:1021A0006420FEF7A1F819210020FFF753FB01225C
:1021B0000B4923A0FFF758FCC4F81480FFF768FC14
:1021C0004CF25030FEF790F8FFF70FFB3220FEF78D
:1021D0008BF884E70054004048040020801A060071
:1021E00020000020456E74657220796F7572206E34
:1021F000657720706173733A00000000456E746566
:10220000722070617373776F72643A00000C014042
:102210004F76657220352074696D65732E0000005D
:10222000506C732077616974203130732E00000088
:102230004F7665722031302074696D65732E000011
:10224000506C732077616974203230732E00000067
:1022500070B5FFF7CAFA0F210020FFF7FBFA012241
:102260000D490EA0FFF700FCFFF712FC0A480830EA
:10227000FFF70AFE084C0025203C04F13001E57010
:102280000822A1F1080000F0CDF96561E07804288A
:1022900001D10120207170BD20000020596F75729E
:1022A000204269726474686461793F0070B5C34C00
:1022B000002280212046FEF71EF9012240212046FF
:1022C000FEF719F9012220212046FEF714F9012218
:1022D00010212046FEF70FF908212046FEF706F9E7
:1022E0004FF4967500287CD004212046FEF7FEF8B6
:1022F000002877D002212046FEF7F8F8002872D097
:1023000001212046FEF7F2F800286DD0012280213D
:102310002046FEF7F0F8002240212046FEF7EBF8B9
:10232000012220212046FEF7E6F801221021204656
:10233000FEF7E1F808212046FEF7D8F8002870D013
:1023400004212046FEF7D2F800286BD00221204657
:10235000FEF7CCF8002872D001212046FEF7C6F81F
:1023600000286DD0012280212046FEF7C4F801220A
:1023700040212046FEF7BFF8002220212046FEF72C
:10238000BAF8012210212046FEF7B5F808212046B0
:10239000FEF7ACF8002870D004212046FEF7A6F81E
:1023A00000286BD002212046FEF7A0F800286ED04E
:1023B00001212046FEF79AF8002869D001228021E9
:1023C0002046FEF798F8012240212046FEF793F8B8
:1023D000012220212046FEF78EF8002210212046FF
:1023E00003E024E031E03CE049E0FEF784F8082116
:1023F0002046FEF77BF800286FD004212046FEF728
:1024000075F800286AD002212046FEF76FF80028F0
:1024100071D001212046FEF769F800286CD06B20AE
:1024200070BD3AE045E02846FDF75EFF05E0082173
:102430002046FEF75BF80028F5D03120F0E744E0B5
:1024400051E02846FDF750FF05E004212046FEF745
:102450004DF80028F5D03220E2E72846FDF744FF8A
:1024600005E002212046FEF741F80028F5D0332090
:10247000D6E72846FDF738FF07E042E04DE00121AE
:102480002046FEF733F80028F3D04120C8E750E09B
:102490005BE02846FDF728FF05E008212046FEF70F
:1024A00025F80028F5D03420BAE72846FDF71CFFB0
:1024B00005E004212046FEF719F80028F5D0352064
:1024C000AEE72846FDF710FF05E002212046FEF7A3
:1024D0000DF80028F5D03620A2E742E04DE028466E
:1024E000FDF702FF05E001212046FDF7FFFF002870
:1024F000F5D0422094E74CE057E02846FDF7F4FE83
:1025000005E008212046FDF7F1FF0028F5D037202F
:1025100086E72846FDF7E8FE05E004212046FDF7A2
:10252000E5FF0028F5D038207AE72846FDF7DCFEE5
:1025300005E002212046FDF7D9FF0028F5D039201B
:102540006EE72846FDF7D0FE05E001212046FDF7A5
:10255000CDFF0028F5D0432062E72846FDF7C4FEF2
:1025600005E008212046FDF7C1FF0028F5D02A200C
:1025700056E72846FDF7B8FE05E004212046FDF7A2
:10258000B5FF0028F5D030204AE72846FDF7ACFE1D
:1025900005E002212046FDF7A9FF0028F5D0232001
:1025A0003EE72846FDF7A0FE05E001212046FDF7A5
:1025B0009DFF0028F5D0442032E7000000080140CC
:1025C0000148401EFDD1704790D003001CB5022386
:1025D0008DF804100A2100918DF80520014601AA0A
:1025E0000148FEF70DF91CBD4804002070B5C2B0CB
:1025F00000248DF8041001A904E0155D0E19641C77
:102600007570E4B29C42F8D30A2100915B1C01462C
:102610009BB201AA0248FEF7F3F842B070BD000079
:102620004804002070B500241C4B08E0055D0E5DD9
:10263000B54202D1DD786D1CDD70641CE4B29442B9
:10264000F4DBD87800214FF4FA6490420BD1597131
:102650001970597023210020FFF7FCF80F4901225F
:1026600020310FA00CE05879401C58711970597036
:1026700023210020FFF7EEF80849012220310AA0AB
:10268000FFF7F2F9FFF704FA2046FDF72DFEFFF7FA
:10269000ACF8BDE87040FFF7FBB900000000002077
:1026A000436F72726563740057726F6E670000004B
:1026B000000000000000000000000000000000001A
:1026C00000000000001000100010001000100010AA
:1026D0000000001000000000002800280028000072
:1026E00000000000000000000000000000240024A2
:1026F000007C00240048007C0048004800000000E6
:1027000000380054005000380014005400540038C1
:102710000010000000200054005800300028005431
:10272000001400080000000000100028002800101D
:102730000034004800480034000000000010001081
:102740000010000000000000000000000000000079
:1027500000080010002000200020002000200020A1
:102760000010000800200010000800080008000801
:102770000008000800100020001000380010002899
:102780000000000000000000000000000000000049
:1027900000100010007C001000100000000000007D
:1027A0000000000000000000000000000000001019
:1027B00000100010000000000000000000000038C1
:1027C0000000000000000000000000000000000009
:1027D00000000000000000100000000000080008D9
:1027E0000010001000100010002000200000000069
:1027F00000380044004400540044004400440038C1
:102800000000000000100030005000100010001008
:1028100000100010000000000038004400440004D4
:10282000000800100020007C000000000038004478
:1028300000040018000400040044003800000000F8
:1028400000080018002800280048007C0008000844
:1028500000000000007C00400040007800040004FC
:1028600000440038000000000038004400400078B8
:10287000004400440044003800000000007C0004D4
:1028800000080010001000200020002000000000C0
:10289000003800440044003800440044004400383C
:1028A000000000000038004400440044003C0004E4
:1028B000004400380000000000000000001000008C
:1028C00000000000000000100000000000000000F8
:1028D00000000010000000000000001000100010B8
:1028E00000000000000C003000400030000C000030
:1028F00000000000000000000000007C0000007CE0
:10290000000000000000000000000000006000184F
:1029100000040018006000000000000000380044BF
:10292000000400080010001000000010000000006B
:1029300000380044004C0054005C00400040003867
:102940000000000000100028002800280028007C5B
:102950000044004400000000007800440044007877
:1029600000440044004400780000000000380044A7
:1029700000400040004000400044003800000000DB
:1029800000700048004400440044004400480070C7
:1029900000000000007C00400040007C004000403F
:1029A0000040007C00000000007C004000400078F7
:1029B000004000400040004000000000003800449B
:1029C00000400040005C004400440038000000006B
:1029D000004400440044007C00440044004400449F
:1029E000000000000038001000100010001000105F
:1029F000001000380000000000040004000400047F
:102A000000040004004400380000000000440048B6
:102A100000500060005000480048004400000000E2
:102A20000040004000400040004000400040007C6A
:102A3000000000000044006C006C0054004400449E
:102A4000004400440000000000440064006400549E
:102A50000054004C004C00440000000000380044CA
:102A600000440044004400440044003800000000DA
:102A700000780044004400440078004000400040DA
:102A800000000000003800440044004400440044BA
:102A90000054003800040000007800440044004462
:102AA000007800480048004400000000003800445E
:102AB000004000300008000400440038000000001E
:102AC000007C00100010001000100010001000101A
:102AD000000000000044004400440044004400445E
:102AE0000044003800000000004400440044002876
:102AF00000280028001000100000000000440044DE
:102B0000005400540054006C00280028000000000D
:102B1000004400280028001000100028002800446D
:102B200000000000004400440028002800100010AD
:102B30000010001000000000007C000400080010DD
:102B4000001000200040007C000000000018001071
:102B500000100010001000100010001000100018ED
:102B600000200020001000100010001000080008D5
:102B700000000000003000100010001000100010D5
:102B80000010001000100030001000280028004441
:102B90000000000000000000000000000000000035
:102BA000000000000000000000000000000000FE27
:102BB00000200010000000000000000000000000E5
:102BC000000000000000000000380044003C004409
:102BD000004C003400000000004000400058006439
:102BE00000440044006400580000000000000000A1
:102BF000003800440040004000440038000000005D
:102C0000000400040034004C00440044004C003434
:102C1000000000000000000000380044007C00407C
:102C20000044003800000000000C0010007C001080
:102C30000010001000100010000000000000000054
:102C40000034004C00440044004C00340004007880
:102C50000040004000580064004400440044004428
:102C600000000000001000000070001000100010B4
:102C700000100010000000000010000000700010A4
:102C80000010001000100010001000E00040004094
:102C90000048005000600050004800440000000060
:102CA0000070001000100010001000100010001044
:102CB00000000000000000000078005400540054A0
:102CC00000540054000000000000000000580064A0
:102CD00000440044004400440000000000000000E4
:102CE0000038004400440044004400380000000064
:102CF00000000000005800640044004400640058D4
:102D000000400040000000000034004C004400443B
:102D1000004C00340004000400000000005800646F
:102D200000400040004000400000000000000000A3
:102D30000038004400300008004400380000000063
:102D40000020002000780020002000200020001833
:102D50000000000000000000004400440044004463
:102D6000004C00340000000000000000004400445B
:102D700000280028002800100000000000000000CB
:102D8000005400540054006C00280028000000008B
:102D9000000000000044002800100010002800443B
:102DA000000000000000000000440044002800284B
:102DB000001000100010006000000000007C0008FF
:102DC000001000200040007C0000000000180010EF
:102DD000001000100020002000100010001000184B
:102DE0000010001000100010001000100010001063
:102DF0000010001000300010001000100008000843
:102E000000100010001000300000000000000074EE
:102E1000004C00000000000000000000010202035E
:102E20000405060708090A0B0C0D0E0F1010000010
:102E3000000000000000010203040607080900006A
:102E40000000010203040000682E000800000020BA
:102E50004800000028010008B02E000848000020AB
:102E6000000B0000440100080000000000003334A3
:102E700035360000000000000000000000000000E7
:102E80000000000000000000070A0000B026000853
:102E90000000000000000000000000000000000032
:102EA0000100000010000000000000000024F400F9
:04000005080000ED02
:00000001FF
